:020000040000FA
:100000000C9435000C945D000C945D000C945D0024
:100010000C945D000C945D000C945D000C945D00EC
:100020000C945D000C945D000C945D000C945D00DC
:100030000C945D000C945D000C945D000C945D00CC
:100040000C94BA020C945D000C942A030C940403E3
:100050000C945D000C945D000C945D000C945D00AC
:100060000C945D000C945D004B0611241FBECFEF75
:10007000D8E0DEBFCDBF11E0A0E0B1E0E4E4F4E100
:1000800002C005900D92AC33B107D9F721E0ACE383
:10009000B1E001C01D92A93EB207E1F710E0C5E34F
:1000A000D0E004C02197FE010E94FE07C433D107AF
:1000B000C9F70E945C030C94200A0C9400003FB71F
:1000C000F8948091400190914101A0914201B0913A
:1000D000430126B5A89B05C02F3F19F00196A11D2D
:1000E000B11D3FBFBA2FA92F982F8827BC01CD0182
:1000F000620F711D811D911D42E0660F771F881FE1
:10010000991F4A95D1F70895AF92BF92CF92DF928F
:10011000EF92FF920F931F93CF93DF936C017B01BC
:100120008B01040F151FEB015E01AE18BF08C0174D
:10013000D10759F06991D601ED91FC910190F081C0
:10014000E02DC6010995892B79F7C501DF91CF9183
:100150001F910F91FF90EF90DF90CF90BF90AF90E5
:100160000895FC01538D448D252F30E0842F90E0BD
:10017000821B930B541710F0CF96089501970895A2
:10018000FC01918D828D981761F0A28DAE0FBF2F6B
:10019000B11D5D968C91928D9F5F9F73928F90E0C1
:1001A00008958FEF9FEF08952FB7F8948091440141
:1001B00090914501A0914601B09147012FBF8093D6
:1001C000500190935101A0935201B093530188E4E0
:1001D00091E00E94C00097FF26C02FB7F89480914D
:1001E000440190914501A0914601B09147012FBF74
:1001F0004091500150915101609152017091530111
:10020000841B950BA60BB70B40914C0150914D01EF
:1002100060914E0170914F0184179507A607B707AB
:10022000B0F28FEF9FEF0895FC01918D828D9817AA
:1002300031F0828DE80FF11D858D90E008958FEFEC
:100240009FEF0895FC01918D228D892F90E0805CB5
:100250009F4F821B91098F739927089588E491E03D
:100260000E94220121E0892B09F420E0822F0895C9
:1002700080E090E0892B29F00E942E0181110C94DE
:1002800000000895FC01A48DA80FB92FB11DA35A39
:10029000BF4F2C91848D90E001968F739927848FA6
:1002A000A689B7892C93A089B1898C9183708064C9
:1002B0008C93938D848D981306C00288F389E02D6A
:1002C00080818F7D80830895EF92FF920F931F931B
:1002D000CF93DF93EC0181E0888F9B8D8C8D9813F9
:1002E0001AC0E889F989808185FF15C09FB7F89405
:1002F000EE89FF896083E889F98980818370806451
:1003000080839FBF81E090E0DF91CF911F910F919B
:10031000FF90EF900895F62E0B8D10E00F5F1F4FAA
:100320000F731127E02E8C8D8E110CC00FB607FCB9
:10033000FACFE889F989808185FFF5CFCE010E9447
:100340004201F1CFEB8DEC0FFD2FF11DE35AFF4F72
:10035000F0829FB7F8940B8FEA89FB8980818062D5
:10036000CFCFCF93DF93EC01888D8823B9F0AA8992
:10037000BB89E889F9898C9185FD03C0808186FD60
:100380000DC00FB607FCF7CF8C9185FFF2CF8081AF
:1003900085FFEDCFCE010E944201E9CFDF91CF91E1
:1003A0000895FC0101900020E9F73197AF01481B47
:1003B000590BBC0188E491E00C9484008F929F92C9
:1003C000AF92BF920F931F93CF93DF93CDB7DEB75A
:1003D000A1970FB6F894DEBF0FBECDBF19A2423071
:1003E00008F44AE08E010F5D1F4F842E912CB12C32
:1003F000A12CA50194010E94CD07E62FB901CA01E5
:10040000EA30F4F4E05DD801EE938D01232B242B28
:10041000252B79F790E080E0109719F0CD010E942C
:10042000D101A1960FB6F894DEBF0FBECDBFDF910C
:10043000CF911F910F91BF90AF909F908F90089593
:10044000E95CE1CFCF92DF92EF92FF92CF93DF93FF
:100450006B017C016DE288E491E00E946401EC0193
:1004600066277727CB016C197D098E099F094AE021
:100470000E94DE018C0F9D1FDF91CF91FF90EF90C6
:10048000DF90CF900895BC01990F880B990B97FDD1
:100490000C9422024AE00C94DE010F931F93CF9339
:1004A000DF93EC0188819981009759F02A813B8183
:1004B0002617370730F081E0DF91CF911F910F9120
:1004C00008958B016F5F7F4F0E942909009759F0B3
:1004D000998388831B830A832C813D81232B59F7C1
:1004E000FC011082E8CF80E0E7CFCF93DF93EC01EF
:1004F00088819981009711F00E94A00819821882C2
:100500001D821C821B821A82DF91CF910895EF9287
:10051000FF920F931F93CF93DF938C017B01EB012D
:1005200009900020E9F72197C61BD70BBE010E9456
:100530004D02811109C0C801DF91CF911F910F9128
:10054000FF90EF900C947502F801D583C483B70136
:1005500080819181DF91CF911F910F91FF90EF905A
:100560000C940B0AFC0180819181009711F00C948E
:10057000A00808951F920F920FB60F9211242F9387
:100580003F938F939F93AF93BF938091440190913A
:100590004501A0914601B091470130913F0123E010
:1005A000230F2D3758F50196A11DB11D20933F0152
:1005B0008093440190934501A0934601B093470175
:1005C0008091400190914101A0914201B09143017D
:1005D0000196A11DB11D8093400190934101A0930C
:1005E0004201B0934301BF91AF919F918F913F9191
:1005F0002F910F900FBE0F901F90189526E8230F94
:100600000296A11DB11DD2CF1F920F920FB60F926D
:1006100011242F933F934F935F936F937F938F9307
:100620009F93AF93BF93EF93FF9388E491E00E9471
:100630004201FF91EF91BF91AF919F918F917F9177
:100640006F915F914F913F912F910F900FBE0F903F
:100650001F9018951F920F920FB60F9211242F938F
:100660008F939F93EF93FF93E0915801F09159017D
:100670008081E0915E01F0915F0182FD1BC090815D
:10068000809161018F5F8F7320916201821741F029
:10069000E0916101F0E0E85BFE4F958F809361018E
:1006A000FF91EF919F918F912F910F900FBE0F901F
:1006B0001F9018958081F4CFCF93DF93CDB7DEB72D
:1006C0002C970FB6F894DEBF0FBECDBF789484B5DB
:1006D000826084BD84B5816084BD85B5826085BD3E
:1006E00085B5816085BD80916E00816080936E00CC
:1006F00010928100809181008260809381008091BE
:10070000810081608093810080918000816080936E
:1007100080008091B10084608093B1008091B0002E
:1007200081608093B00080917A00846080937A0029
:1007300080917A00826080937A0080917A00816053
:1007400080937A0080917A00806880937A0010927A
:10075000C100E0915801F091590182E08083E0915D
:100760005401F09155011082E0915601F09157012A
:100770008FEC808310926001E0915C01F0915D014B
:1007800086E08083E0915A01F0915B018081806175
:100790008083E0915A01F0915B01808188608083C1
:1007A000E0915A01F0915B01808180688083E09143
:1007B0005A01F0915B0180818F7D808380E480937A
:1007C0007C0080917A00806480937A0080917A0026
:1007D00086FDFCCF6091780070917900072E000CA7
:1007E000880B990B611571058105910511F00E9427
:1007F000130748EE442E43E0542E612C712C37E64B
:10080000232E3324339488E491E00E9422011816A9
:1008100019060CF0A1C018861F821A8619861C863C
:100820001B866BE371E0CE0107960E9487020E944F
:10083000D40097FD1EC08A309105D9F089831A82B1
:100840000B851C850F5F1F4FB801CE0107960E94D4
:100850004D02882361F32F8138858B859C85BE01ED
:100860006F5F7F4F820F931F0E940B0A1C870B87BD
:10087000DECFCF80D884C114D10431F00B851C8524
:10088000760101151105B1F40F81188501151105C7
:1008900009F446C0F80181918F01882309F440C012
:1008A000082E000C990B0E94E609F801319780830D
:1008B000F1CF740147012FEF821A920AF70180816C
:1008C000082E000C990B0E945807892B91F70150B4
:1008D00011090C0D1D1DF8018081082E000C990BCB
:1008E0000E945807892B31F00E151F0518F0015092
:1008F0001109F1CFA8014F5F5F4F4E195F095C8767
:100900004B87CE14DF0420F4B701C6010E94EE0924
:10091000EF81F8858B859C85E80FF91F1082B4CF95
:100920008B859C85892B09F472C00F81188561E243
:1009300071E0C8010E94020A892B41F066E271E071
:10094000C8010E94020A892B09F061C010923E0181
:10095000CE0107960E94B20280913E01882309F4DD
:1009600064C100913C0110913D01C80188974097F6
:1009700008F004C10E94C40625E030E040E050E0E9
:100980000E94640762507109810991097B01FDE2AF
:10099000EF0EF11C8EE291E00E94D10188E691E019
:1009A0000E94430285E391E00E94D10188EC90E02F
:1009B0000E94430287E391E00E94D10180913C01B3
:1009C00090913D010E94430283E391E00E94D10196
:1009D000B701FF0C880B990B4AE00E94DE0189E306
:1009E00091E00E94D1012091000180913C01909101
:1009F0003D01222309F426C101968936F1E09F07C3
:100A00000CF0FCC090933D0180933C01FDC01A8224
:100A100019821C821B821E821D8268E271E0CE0157
:100A200001960E9487024D815E818B859C8584178B
:100A3000950770F08F819885009751F069817A81D0
:100A40006115710529F00E94120A11E0892B09F045
:100A500010E0CE0101960E94B202112309F478CF72
:100A6000F1E0F0933E01EB84FC84E114F10409F41D
:100A70007CC0CF80D8846DE270E0C6010E94F70987
:100A8000009709F472C08C010C191D090F3F100763
:100A900009F46BC00F5F1F4FE016F10628F4902F8A
:100AA000812F8701E92EF82E1A8219821C821B825F
:100AB0001E821D826BE371E0CE0101960E948702C7
:100AC000CB84DC840C151D0550F5EC14FD0408F4F2
:100AD0006701EF81F885EC0DFD1D908010828F81FC
:100AE0009885080F191F0115110579F0F80101907B
:100AF0000020E9F731977F01E01AF10AB701CE0132
:100B000001960E944D02811124C0CE0101960E94DF
:100B100075028F819885C80ED91EF6019082898151
:100B20009A810097F1F00E941C071616170664F4CC
:100B3000072E000C880B990B609301017093020142
:100B40008093030190930401CE0101960E94B202AA
:100B5000FFCEFE82ED82B80189819A810E940B0A44
:100B6000D8CF60E070E0CB01E0CF4092010150921D
:100B700002016092030170920401EACEC8018F5A0B
:100B80009109409788F40E94C40627E030E040E0D5
:100B900050E00E94640763507109810991097B014B
:100BA00020E5E20EF11CF6CEC80182529140459735
:100BB000A0F40E94C406065E11097801EE0CFF1C29
:100BC00023E030E040E050E00E946407615071098A
:100BD00081099109E60EF71EDDCE0E94C4062FE0C2
:100BE00030E040E050E00E946407655071098109DF
:100BF00091097B01E9EBEE0EF11CCCCE30923D0168
:100C000020923C0110920001C0900101D09002019D
:100C1000E0900301F09004010E945F004B015C0131
:100C2000C114D104E104F10451F580E090E0892B76
:100C300009F4E9CD0E942E01882309F4E0CD0E9439
:100C40000000DDCD019797FFDDCE81E090E090932D
:100C50003D0180933C0191E090930001D5CFE1E00C
:100C6000CE1AD108E108F108F8EE8F0EF3E09F1ECE
:100C7000A11CB11CC114D104E104F10489F20E9449
:100C80005F00681979098A099B09683E73408105EC
:100C9000910528F7C5CFE8E4F1E01382128288EECF
:100CA00093E0A0E0B0E084839583A683B78383E1DB
:100CB00091E09183808385EC90E09587848784EC34
:100CC00090E09787868780EC90E0918B808B81EC19
:100CD00090E0938B828B82EC90E0958B848B86ECFA
:100CE00090E0978B868B118E128E138E148E089542
:100CF0008F929F92AF92BF92CF92DF92EF92FF922C
:100D0000CF93DF93EC01688179818A819B816115A2
:100D100071058105910521F464E279ED8BE597E099
:100D20002DE133EF41E050E00E94640749015A0190
:100D30009B01AC01A7EAB1E40E9483076B017C012F
:100D4000ACEEB4EFA50194010E949107C60ED71E28
:100D5000E81EF91EF7FE06C081E0C81AD108E108B6
:100D600080E8F80AC882D982EA82FB82C701B6010C
:100D70009F77DF91CF91FF90EF90DF90CF90BF9062
:100D8000AF909F908F9008958F929F92AF92BF9255
:100D9000CF92DF92EF92FF92609105017091060170
:100DA00080910701909108016115710581059105F8
:100DB00021F464E279ED8BE597E02DE133EF41E03A
:100DC00050E00E94640749015A019B01AC01A7EA67
:100DD000B1E40E9483076B017C01ACEEB4EFA50186
:100DE00094010E949107C60ED71EE81EF91EF7FE59
:100DF00006C081E0C81AD108E10880E8F80AC0926C
:100E00000501D0920601E0920701F0920801C701A6
:100E1000B6019F77FF90EF90DF90CF90BF90AF909B
:100E20009F908F90089560930501709306018093C1
:100E300007019093080108951F93FC0199278827C3
:100E4000BC01E89411911032E9F3193010F01E3012
:100E5000C8F31B3251F01D3249F4689406C00E9459
:100E60004307610F711D811D911D119110531A309F
:100E7000B0F33EF490958095709561957F4F8F4FBC
:100E80009F4F1F910895592F482F372F262F660FF8
:100E9000771F881F991F660F771F881F991F620F82
:100EA000731F841F951F660F771F881F991F089552
:100EB00091110C946107803219F089508550C8F760
:100EC0000895992788270895052E97FB1EF400940E
:100ED0000E947B0757FD07D00E94CD0707FC03D077
:100EE0004EF40C947B0750954095309521953F4FDB
:100EF0004F4F5F4F089590958095709561957F4F06
:100F00008F4F9F4F08950E94EF07A59F900DB49FAC
:100F1000900DA49F800D911D11240895B7FF0C948E
:100F200083070E948307821B930B08952F923F92A1
:100F30004F925F926F927F928F929F92AF92BF92E9
:100F4000CF92DF92EF92FF920F931F93CF93DF9395
:100F5000CDB7DEB7CA1BDB0B0FB6F894DEBF0FBEF2
:100F6000CDBF09942A88398848885F846E847D843F
:100F70008C849B84AA84B984C884DF80EE80FD8041
:100F80000C811B81AA81B981CE0FD11D0FB6F894B7
:100F9000DEBF0FBECDBFED010895A1E21A2EAA1B40
:100FA000BB1BFD010DC0AA1FBB1FEE1FFF1FA21719
:100FB000B307E407F50720F0A21BB30BE40BF50B16
:100FC000661F771F881F991F1A9469F7609570959F
:100FD000809590959B01AC01BD01CF010895A29F22
:100FE000B001B39FC001A39F700D811D1124911DFD
:100FF000B29F700D811D1124911D0895EE0FFF1FEA
:101000000590F491E02D09940F931F93CF93DF93F4
:101010008230910510F482E090E0E091E701F091D8
:10102000E80130E020E0B0E0A0E0309799F421152D
:10103000310509F44AC0281B390B24303105D8F595
:101040008A819B816115710589F1FB0193838283FC
:10105000FE0111C040815181028113814817590757
:10106000E0F04817590799F4109761F012960C9325
:10107000129713961C933296CF01DF91CF911F9157
:101080000F9108950093E7011093E801F4CF211523
:10109000310551F04217530738F0A901DB019A01DD
:1010A000BD01DF01F801C1CFEF01F9CF9093E80155
:1010B0008093E701CDCFFE01E20FF31F819391935F
:1010C0002250310939832883D7CF2091E50130910F
:1010D000E601232B41F420910B0130910C01309358
:1010E000E6012093E5012091090130910A012115C3
:1010F000310541F42DB73EB740910D0150910E01DD
:10110000241B350BE091E501F091E601E217F307AE
:10111000A0F42E1B3F0B2817390778F0AC014E5F67
:101120005F4F2417350748F04E0F5F1F5093E601BD
:101130004093E501819391939FCFF0E0E0E09CCF55
:10114000CF93DF930097E9F0FC013297138212826C
:10115000A091E701B091E801ED0130E020E01097A7
:10116000A1F420813181820F931F2091E5013091FC
:10117000E6012817390709F061C0F093E601E09312
:10118000E501DF91CF910895EA01CE17DF07E8F579
:101190004A815B819E0141155105B1F7E901FB834D
:1011A000EA8349915991C40FD51FEC17FD0761F4EB
:1011B000808191810296840F951FE901998388832C
:1011C000828193819B838A83F0E0E0E012968D9187
:1011D0009C9113970097B9F52D913C911197CD01F2
:1011E0000296820F931F2091E5013091E6012817A6
:1011F000390739F6309751F51092E8011092E7015E
:10120000B093E601A093E501BCCFD383C2834081B4
:101210005181840F951FC817D90761F44E5F5F4F46
:1012200088819981480F591F518340838A819B810E
:10123000938382832115310509F0B0CFF093E80143
:10124000E093E7019ECFFD01DC01C0CF1382128243
:10125000D7CFB0E0A0E0EFE2F9E00C9498078C0162
:10126000009751F4CB010E9404088C01C801CDB74E
:10127000DEB7E0E10C94B407FC01E60FF71F9C0118
:1012800022503109E217F30708F49DC0D901CD912E
:10129000DC911197C617D70798F0C530D10530F308
:1012A000CE0104978617970708F3C61BD70B229722
:1012B000C193D1936D937C93CF010E94A008D6CFA8
:1012C0005B01AC1ABD0A4C018C0E9D1EA091E7017A
:1012D000B091E801512C412CF12CE12C109731F503
:1012E0008091E5019091E6018815990509F05CC0AF
:1012F0004616570608F058C08091090190910A01DE
:10130000009741F48DB79EB740910D0150910E01A9
:10131000841B950BE817F90708F055C0F093E60118
:10132000E093E501F90171836083A0CF8D919C91D9
:10133000119712966C90129713967C901397A8159C
:10134000B90559F56C0142E0C40ED11CCA14DB0486
:1013500020F1AC014A195B09DA011296159780F069
:101360006282738251834083D9016D937C93E1142F
:10137000F10471F0D7011396FC93EE93129776CF98
:1013800022968C0F9D1FF90191838083F301EFCF8B
:10139000F093E801E093E70169CF4816590608F495
:1013A0002C017D01D3019ACFCB010E9404087C015E
:1013B000009749F0AE01B8010E94EE09C8010E94F1
:1013C000A008870153CF10E000E050CF911108959D
:1013D00081548A5108F4805E855A0895FB01DC012E
:1013E00002C001900D9241505040D8F70895FC0181
:1013F0008191861721F08823D9F79927089531978D
:10140000CF010895FB01DC018D910190801901103D
:10141000D9F3990B0895FB01DC0101900D92002096
:10142000E1F70895FB01DC014150504030F08D910F
:101430000190801919F40020B9F7881B990B0895C1
:10144000F894FFCF01E8030000010000000000E96C
:101450000180000000000064018400B100B101229D
:1014600001C000140173746F7000710073746172B5
:1014700074007261646F722D003A002F000D0A0033
:107E0000112484B714BE81FFF0D085E080938100F7
:107E100082E08093C00088E18093C10086E0809377
:107E2000C20080E18093C4008EE0C9D0259A86E02C
:107E300020E33CEF91E0309385002093840096BBD3
:107E4000B09BFECF1D9AA8958150A9F7CC24DD24C4
:107E500088248394B5E0AB2EA1E19A2EF3E0BF2EE7
:107E6000A2D0813461F49FD0082FAFD0023811F036
:107E7000013811F484E001C083E08DD089C08234E0
:107E800011F484E103C0853419F485E0A6D080C0E4
:107E9000853579F488D0E82EFF2485D0082F10E0AE
:107EA000102F00270E291F29000F111F8ED06801E7
:107EB0006FC0863521F484E090D080E0DECF843638
:107EC00009F040C070D06FD0082F6DD080E0C81688
:107ED00080E7D80618F4F601B7BEE895C0E0D1E017
:107EE00062D089930C17E1F7F0E0CF16F0E7DF06D8
:107EF00018F0F601B7BEE89568D007B600FCFDCFD4
:107F0000A601A0E0B1E02C9130E011968C91119780
:107F100090E0982F8827822B932B1296FA010C0160
:107F200087BEE89511244E5F5F4FF1E0A038BF0790
:107F300051F7F601A7BEE89507B600FCFDCF97BE46
:107F4000E89526C08437B1F42ED02DD0F82E2BD052
:107F50003CD0F601EF2C8F010F5F1F4F84911BD097
:107F6000EA94F801C1F70894C11CD11CFA94CF0C13
:107F7000D11C0EC0853739F428D08EE10CD085E9AC
:107F80000AD08FE07ACF813511F488E018D01DD067
:107F900080E101D065CF982F8091C00085FFFCCF94
:107FA0009093C60008958091C00087FFFCCF809118
:107FB000C00084FD01C0A8958091C6000895E0E648
:107FC000F0E098E1908380830895EDDF803219F02E
:107FD00088E0F5DFFFCF84E1DECF1F93182FE3DFCA
:107FE0001150E9F7F2DF1F91089580E0E8DFEE27F6
:047FF000FF270994CA
:027FFE00040479
:00000001FF
