:100000000C9435000C945D000C945D000C945D0024
:100010000C945D000C945D000C945D000C945D00EC
:100020000C945D000C945D000C945D000C945D00DC
:100030000C945D000C945D000C945D000C945D00CC
:100040000C9483020C945D000C94F3020C94CD028A
:100050000C945D000C945D000C945D000C945D00AC
:100060000C945D000C945D00540511241FBECFEF6D
:10007000D8E0DEBFCDBF11E0A0E0B1E0ECEAF1E1F5
:1000800002C005900D92AA3AB107D9F722E0AAEA78
:10009000B1E001C01D92A635B207E1F710E0C5E35B
:1000A000D0E004C02197FE010E94CB06C433D107E3
:1000B000C9F70E9425030C94D4080C9400003FB7A4
:1000C000F8948091AD019091AE01A091AF01B091F3
:1000D000B00126B5A89B05C02F3F19F00196A11DC0
:1000E000B11D3FBFBA2FA92F982F8827BC01CD0182
:1000F000620F711D811D911D42E0660F771F881FE1
:10010000991F4A95D1F70895AF92BF92CF92DF928F
:10011000EF92FF920F931F93CF93DF936C017B01BC
:100120008B01040F151FEB015E01AE18BF08C0174D
:10013000D10759F06991D601ED91FC910190F081C0
:10014000E02DC6010995892B79F7C501DF91CF9183
:100150001F910F91FF90EF90DF90CF90BF90AF90E5
:100160000895FC01538D448D252F30E0842F90E0BD
:10017000821B930B541710F0CF96089501970895A2
:10018000FC01918D828D981761F0A28DAE0FBF2F6B
:10019000B11D5D968C91928D9F5F9F73928F90E0C1
:1001A00008958FEF9FEF08952FB7F8948091B101D4
:1001B0009091B201A091B301B091B4012FBF80938F
:1001C000BD019093BE01A093BF01B093C00185EB28
:1001D00091E00E94C00097FF26C02FB7F89480914D
:1001E000B1019091B201A091B301B091B4012FBFC0
:1001F0004091BD015091BE016091BF017091C0015D
:10020000841B950BA60BB70B4091B9015091BA0115
:100210006091BB017091BC0184179507A607B707D1
:10022000B0F28FEF9FEF0895FC01918D828D9817AA
:1002300031F0828DE80FF11D858D90E008958FEFEC
:100240009FEF0895FC01918D228D892F90E0805CB5
:100250009F4F821B91098F739927089585EB91E039
:100260000E94220121E0892B09F420E0822F0895C9
:1002700080E090E0892B29F00E942E0181110C94DE
:1002800000000895FC01A48DA80FB92FB11DA35A39
:10029000BF4F2C91848D90E001968F739927848FA6
:1002A000A689B7892C93A089B1898C9183708064C9
:1002B0008C93938D848D981306C00288F389E02D6A
:1002C00080818F7D80830895EF92FF920F931F931B
:1002D000CF93DF93EC0181E0888F9B8D8C8D9813F9
:1002E0001AC0E889F989808185FF15C09FB7F89405
:1002F000EE89FF896083E889F98980818370806451
:1003000080839FBF81E090E0DF91CF911F910F919B
:10031000FF90EF900895F62E0B8D10E00F5F1F4FAA
:100320000F731127E02E8C8D8E110CC00FB607FCB9
:10033000FACFE889F989808185FFF5CFCE010E9447
:100340004201F1CFEB8DEC0FFD2FF11DE35AFF4F72
:10035000F0829FB7F8940B8FEA89FB8980818062D5
:10036000CFCFCF93DF93EC01888D8823B9F0AA8992
:10037000BB89E889F9898C9185FD03C0808186FD60
:100380000DC00FB607FCF7CF8C9185FFF2CF8081AF
:1003900085FFEDCFCE010E944201E9CFDF91CF91E1
:1003A0000895FC0101900020E9F73197AF01481B47
:1003B000590BBC0185EB91E00C9484008F929F92C5
:1003C000AF92BF920F931F93CF93DF93CDB7DEB75A
:1003D000A1970FB6F894DEBF0FBECDBF19A2423071
:1003E00008F44AE08E010F5D1F4F842E912CB12C32
:1003F000A12CA50194010E949A06E62FB901CA0119
:10040000EA30F4F4E05DD801EE938D01232B242B28
:10041000252B79F790E080E0109719F0CD010E942C
:10042000D101A1960FB6F894DEBF0FBECDBFDF910C
:10043000CF911F910F91BF90AF909F908F90089593
:10044000E95CE1CFCF92DF92EF92FF92CF93DF93FF
:100450006B017C016DE285EB91E00E946401EC018F
:1004600066277727CB016C197D098E099F094AE021
:100470000E94DE018C0F9D1FDF91CF91FF90EF90C6
:10048000DF90CF900895CF93DF930E94D101EC01CC
:100490008EE191E00E94D1018C0F9D1FDF91CF91E1
:1004A0000895BC01990F880B990B97FD0C942202BB
:1004B0004AE00C94DE010F931F93CF93DF93EC017E
:1004C00088819981009759F02A813B812617370747
:1004D00030F081E0DF91CF911F910F9108958B0152
:1004E0006F5F7F4F0E94F607009759F099838883CA
:1004F0001B830A832C813D81232B59F7FC01108239
:10050000E8CF80E0E7CF1F920F920FB60F92112431
:100510002F933F938F939F93AF93BF938091B1019C
:100520009091B201A091B301B091B4013091AC01AE
:1005300023E0230F2D3758F50196A11DB11D2093FF
:10054000AC018093B1019093B201A093B301B09339
:10055000B4018091AD019091AE01A091AF01B09135
:10056000B0010196A11DB11D8093AD019093AE0124
:10057000A093AF01B093B001BF91AF919F918F91C4
:100580003F912F910F900FBE0F901F90189526E866
:10059000230F0296A11DB11DD2CF1F920F920FB64D
:1005A0000F9211242F933F934F935F936F937F93F9
:1005B0008F939F93AF93BF93EF93FF9385EB91E05E
:1005C0000E944201FF91EF91BF91AF919F918F9156
:1005D0007F916F915F914F913F912F910F900FBE3F
:1005E0000F901F9018951F920F920FB60F92112423
:1005F0002F938F939F93EF93FF93E091C501F09119
:10060000C6018081E091CB01F091CC0182FD1BC03D
:1006100090818091CE018F5F8F732091CF018217DF
:1006200041F0E091CE01F0E0EB54FE4F958F8093C6
:10063000CE01FF91EF919F918F912F910F900FBE5F
:100640000F901F9018958081F4CFCF93DF93CDB793
:10065000DEB728970FB6F894DEBF0FBECDBF7894F3
:1006600084B5826084BD84B5816084BD85B58260B7
:1006700085BD85B5816085BD80916E008160809368
:100680006E001092810080918100826080938100D1
:1006900080918100816080938100809180008160E1
:1006A000809380008091B10084608093B10080913C
:1006B000B00081608093B00080917A008460809364
:1006C0007A0080917A00826080937A0080917A002B
:1006D000816080937A0080917A00806880937A00AC
:1006E0001092C100E091C501F091C60182E08083C3
:1006F000E091C101F091C2011082E091C301F0913B
:10070000C4018FEC80831092CD01E091C901F0917A
:10071000CA0186E08083E091C701F091C801808121
:1007200080618083E091C701F091C8018081886079
:100730008083E091C701F091C80180818068808347
:10074000E091C701F091C80180818F7D808380E4B2
:1007500080937C0080917A00806480937A008091FD
:100760007A0086FDFCCF6091780070917900072EA9
:10077000000C880B990B611571058105910511F02D
:100780000E941C0681E291E00E94430224E1822E35
:10079000912CA12CB12C90E0292E90E0392E85EBE4
:1007A00091E00E942201181619060CF0BEC01A82B0
:1007B00019821C821B821E821D8270E060E0CE01C5
:1007C00001960E945B0229813A8181112EC0211578
:1007D000310519F0C9010E946D071A8219821E8223
:1007E0001D821C821B820E94D40097FD26C08A3085
:1007F000910519F18F8318860D811E810F5F1F4FA0
:10080000B801CE0101960E945B02882361F3298121
:100810003A818D819E81BE01695F7F4F820F931F58
:100820000E94CD081E830D83DECF1E821D8260E2F2
:1008300071E0C9010E94CD08D6CFC980DA80C11409
:10084000D10431F00D811E81760101151105B1F43D
:1008500009811A810115110509F446C0F801819139
:100860008F01882309F440C0082E000C990B0E94C8
:10087000B308F80131978083F1CF730137012FEF6F
:10088000621A720AF7018081082E000C990B0E94EF
:100890002506892B91F7015011090C0D1D1DF8013A
:1008A0008081082E000C990B0E942506892B31F0BF
:1008B0000E151F0518F001501109F1CFA8014F5F67
:1008C0005F4F4E195F095E834D83CE14DF0420F421
:1008D000B701C6010E94BB08E981FA818D819E8122
:1008E000E80FF91F1082B4CF8D819E81892BB9F05A
:1008F00009811A8164E671E0C8010E94C408892B4D
:1009000041F069E671E0C8010E94C408892B09F032
:1009100064C0109201018BE691E00E94430289813C
:100920009A81009711F00E946D0780910101882340
:1009300009F4A1C08091AA019091AB018A5A910952
:10094000459708F058C00E94CD05A50194010E946A
:1009500031068B019C01025E1F4F2F4F3F4F8EE9E6
:1009600091E00E94D10188E691E00E94510285EA5F
:1009700091E00E94D10188EC90E00E94510287EA48
:1009800091E00E94D1018091AA019091AB010E9457
:10099000510283EA91E00E94D101B801012E000CBE
:1009A000880B990B17FF36C00E9422028EE191E05E
:1009B0000E94D101209100018091AA019091AB0188
:1009C000222309F464C00196893621E0920734F5A8
:1009D0009093AB018093AA0129C061E871E0C8013E
:1009E0000E94C408892B09F09ACFF1E0F09301012D
:1009F00087E891E092CF0E94CD0528E730E040E003
:100A000050E00E9431068B019C010C591F4F2F4F63
:100A10003F4FA5CF4AE00E94DE01C8CF87E691E0B4
:100A20009093AB018093AA01109200010E945F0095
:100A30002B013C0188EEC82E83E0D82EE12CF12C4E
:100A40000E945F006419750986099709683E734022
:100A500081059105A8F321E0C21AD108E108F10847
:100A600088EE480E83E0581E611C711CC114D1042D
:100A7000E104F10429F72114310409F490CE0E9415
:100A80002E01882309F487CE0E94000084CE0197AE
:100A900097FF9ECFE1E0F0E0F093AB01E093AA0175
:100AA000F1E0F0930001C2CFE5EBF1E01382128296
:100AB00088EE93E0A0E0B0E084839583A683B783BB
:100AC00080E191E09183808385EC90E09587848735
:100AD00084EC90E09787868780EC90E0918B808B08
:100AE00081EC90E0938B828B82EC90E0958B848BF1
:100AF00086EC90E0978B868B118E128E138E148E5F
:100B000008958F929F92AF92BF92CF92DF92EF9211
:100B1000FF92CF93DF93EC01688179818A819B8179
:100B2000611571058105910521F464E279ED8BE58C
:100B300097E02DE133EF41E050E00E94310649019A
:100B40005A019B01AC01A7EAB1E40E9450066B0177
:100B50007C01ACEEB4EFA50194010E945E06C60EC6
:100B6000D71EE81EF91EF7FE06C081E0C81AD1089C
:100B7000E10880E8F80AC882D982EA82FB82C701CC
:100B8000B6019F77DF91CF91FF90EF90DF90CF90EC
:100B9000BF90AF909F908F9008958F929F92AF9249
:100BA000BF92CF92DF92EF92FF926091020170911B
:100BB0000301809104019091050161157105810582
:100BC000910521F464E279ED8BE597E02DE133EFB7
:100BD00041E050E00E94310649015A019B01AC01FD
:100BE000A7EAB1E40E9450066B017C01ACEEB4EFC1
:100BF000A50194010E945E06C60ED71EE81EF91ECE
:100C0000F7FE06C081E0C81AD108E10880E8F80ABA
:100C1000C0920201D0920301E0920401F09205011A
:100C2000C701B6019F77FF90EF90DF90CF90BF9004
:100C3000AF909F908F90089560930201709303018D
:100C40008093040190930501089591110C942E0650
:100C5000803219F089508550C8F708959927882760
:100C60000895052E97FB1EF400940E94480657FD38
:100C700007D00E949A0607FC03D04EF40C94480655
:100C800050954095309521953F4F4F4F5F4F0895B8
:100C900090958095709561957F4F8F4F9F4F0895E8
:100CA0000E94BC06A59F900DB49F900DA49F800D3F
:100CB000911D11240895B7FF0C9450060E94500610
:100CC000821B930B08952F923F924F925F926F92E7
:100CD0007F928F929F92AF92BF92CF92DF92EF92CC
:100CE000FF920F931F93CF93DF93CDB7DEB7CA1B4D
:100CF000DB0B0FB6F894DEBF0FBECDBF09942A8878
:100D0000398848885F846E847D848C849B84AA841F
:100D1000B984C884DF80EE80FD800C811B81AA81AC
:100D2000B981CE0FD11D0FB6F894DEBF0FBECDBF77
:100D3000ED010895A1E21A2EAA1BBB1BFD010DC0F7
:100D4000AA1FBB1FEE1FFF1FA217B307E407F5077B
:100D500020F0A21BB30BE40BF50B661F771F881F57
:100D6000991F1A9469F760957095809590959B01ED
:100D7000AC01BD01CF010895A29FB001B39FC00196
:100D8000A39F700D811D1124911DB29F700D811DB7
:100D90001124911D0895EE0FFF1F0590F491E02D91
:100DA00009940F931F93CF93DF938230910510F432
:100DB00082E090E0E0915402F091550230E020E0B2
:100DC000B0E0A0E0309799F42115310509F44AC04C
:100DD000281B390B24303105D8F58A819B81611598
:100DE000710589F1FB0193838283FE0111C040816B
:100DF00051810281138148175907E0F048175907BC
:100E000099F4109761F012960C93129713961C9315
:100E10003296CF01DF91CF911F910F9108950093EA
:100E2000540210935502F4CF2115310551F04217A9
:100E3000530738F0A901DB019A01BD01DF01F80178
:100E4000C1CFEF01F9CF9093550280935402CDCFDB
:100E5000FE01E20FF31F81939193225031093983F0
:100E60002883D7CF2091520230915302232B41F493
:100E700020910801309109013093530220935202CE
:100E800020910601309107012115310541F42DB75C
:100E90003EB740910A0150910B01241B350BE091A4
:100EA0005202F0915302E217F307A0F42E1B3F0BFE
:100EB0002817390778F0AC014E5F5F4F24173507CC
:100EC00048F04E0F5F1F509353024093520281939C
:100ED00091939FCFF0E0E0E09CCFCF93DF9300971A
:100EE000E9F0FC01329713821282A0915402B09172
:100EF0005502ED0130E020E01097A1F4208131810E
:100F0000820F931F20915202309153022817390704
:100F100009F061C0F0935302E0935202DF91CF9148
:100F20000895EA01CE17DF07E8F54A815B819E014B
:100F300041155105B1F7E901FB83EA8349915991C4
:100F4000C40FD51FEC17FD0761F4808191810296D3
:100F5000840F951FE90199838883828193819B8304
:100F60008A83F0E0E0E012968D919C9113970097B0
:100F7000B9F52D913C911197CD010296820F931FE7
:100F800020915202309153022817390739F63097D1
:100F900051F51092550210925402B0935302A0934F
:100FA0005202BCCFD383C28340815181840F951FED
:100FB000C817D90761F44E5F5F4F88819981480F48
:100FC000591F518340838A819B819383828321159A
:100FD000310509F0B0CFF0935502E09354029ECF53
:100FE000FD01DC01C0CF13821282D7CFB0E0A0E0B8
:100FF000ECEFF7E00C9465068C01009751F4CB01FF
:101000000E94D1068C01C801CDB7DEB7E0E10C9497
:101010008106FC01E60FF71F9C0122503109E217FF
:10102000F30708F49DC0D901CD91DC911197C61743
:10103000D70798F0C530D10530F3CE010497861755
:10104000970708F3C61BD70B2297C193D1936D93D3
:101050007C93CF010E946D07D6CF5B01AC1ABD0A0D
:101060004C018C0E9D1EA0915402B0915502512C42
:10107000412CF12CE12C109731F580915202909186
:1010800053028815990509F05CC04616570608F00A
:1010900058C08091060190910701009741F48DB7E7
:1010A0009EB740910A0150910B01841B950BE817E4
:1010B000F90708F055C0F0935302E0935202F9018A
:1010C00071836083A0CF8D919C91119712966C9043
:1010D000129713967C901397A815B90559F56C01D2
:1010E00042E0C40ED11CCA14DB0420F1AC014A1941
:1010F0005B09DA011296159780F062827382518340
:101100004083D9016D937C93E114F10471F0D70110
:101110001396FC93EE93129776CF22968C0F9D1F19
:10112000F90191838083F301EFCFF0935502E093AF
:10113000540269CF4816590608F42C017D01D301E9
:101140009ACFCB010E94D1067C01009749F0AE01F5
:10115000B8010E94BB08C8010E946D07870153CFE8
:1011600010E000E050CF9111089581548A5108F4A5
:10117000805E855A0895FB01DC0102C001900D924A
:1011800041505040D8F70895FB01DC018D9101904A
:1011900080190110D9F3990B0895FB01DC0101902E
:0C11A0000D920020E1F70895F894FFCFB5
:1011AC000101010000000000560280000000000058
:1011BC0064018400B100B1012201C00014010D0AC8
:1011CC000053797374656D2052656164792E2053D8
:1011DC00656E64202773746F7027206F72202771DF
:1011EC002720746F2070617573652E2053656E64B3
:1011FC00202773746172742720746F207265737565
:10120C006D652E0073746F700071003E3E20536943
:10121C006D756C6174696F6E205061757365642EA9
:10122C00007374617274003E3E2053696D756C617D
:10123C0074696F6E20526573756D65642E007261F2
:0A124C00646F722D003A002F0000BD
:00000001FF
